{
  "_format": "hh-sol-artifact-1",
  "contractName": "VotingSystem",
  "sourceName": "contracts/votingsystem.sol",
  "abi": [
    {
      "inputs": [],
      "stateMutability": "nonpayable",
      "type": "constructor"
    },
    {
      "anonymous": false,
      "inputs": [
        {
          "indexed": false,
          "internalType": "address",
          "name": "user",
          "type": "address"
        },
        {
          "indexed": false,
          "internalType": "string",
          "name": "username",
          "type": "string"
        },
        {
          "indexed": false,
          "internalType": "enum VotingSystem.Role",
          "name": "role",
          "type": "uint8"
        }
      ],
      "name": "UserAdded",
      "type": "event"
    },
    {
      "anonymous": false,
      "inputs": [
        {
          "indexed": false,
          "internalType": "address",
          "name": "user",
          "type": "address"
        }
      ],
      "name": "UserRemoved",
      "type": "event"
    },
    {
      "anonymous": false,
      "inputs": [
        {
          "indexed": false,
          "internalType": "uint256",
          "name": "voteId",
          "type": "uint256"
        }
      ],
      "name": "VoteClosed",
      "type": "event"
    },
    {
      "anonymous": false,
      "inputs": [
        {
          "indexed": false,
          "internalType": "uint256",
          "name": "voteId",
          "type": "uint256"
        },
        {
          "indexed": false,
          "internalType": "string",
          "name": "question",
          "type": "string"
        }
      ],
      "name": "VoteCreated",
      "type": "event"
    },
    {
      "anonymous": false,
      "inputs": [
        {
          "indexed": false,
          "internalType": "uint256",
          "name": "voteId",
          "type": "uint256"
        },
        {
          "indexed": false,
          "internalType": "address",
          "name": "voter",
          "type": "address"
        },
        {
          "indexed": false,
          "internalType": "uint256",
          "name": "option",
          "type": "uint256"
        }
      ],
      "name": "Voted",
      "type": "event"
    },
    {
      "inputs": [
        {
          "internalType": "address",
          "name": "_user",
          "type": "address"
        },
        {
          "internalType": "string",
          "name": "_username",
          "type": "string"
        },
        {
          "internalType": "enum VotingSystem.Role",
          "name": "_role",
          "type": "uint8"
        }
      ],
      "name": "addUser",
      "outputs": [],
      "stateMutability": "nonpayable",
      "type": "function"
    },
    {
      "inputs": [
        {
          "internalType": "address",
          "name": "",
          "type": "address"
        }
      ],
      "name": "admins",
      "outputs": [
        {
          "internalType": "bool",
          "name": "",
          "type": "bool"
        }
      ],
      "stateMutability": "view",
      "type": "function"
    },
    {
      "inputs": [
        {
          "internalType": "address",
          "name": "",
          "type": "address"
        }
      ],
      "name": "authorizedUsers",
      "outputs": [
        {
          "internalType": "string",
          "name": "username",
          "type": "string"
        },
        {
          "internalType": "enum VotingSystem.Role",
          "name": "role",
          "type": "uint8"
        }
      ],
      "stateMutability": "view",
      "type": "function"
    },
    {
      "inputs": [
        {
          "internalType": "uint256",
          "name": "_voteId",
          "type": "uint256"
        }
      ],
      "name": "closeVote",
      "outputs": [],
      "stateMutability": "nonpayable",
      "type": "function"
    },
    {
      "inputs": [
        {
          "internalType": "string",
          "name": "_question",
          "type": "string"
        },
        {
          "internalType": "string[]",
          "name": "_options",
          "type": "string[]"
        },
        {
          "internalType": "uint256",
          "name": "_closingDate",
          "type": "uint256"
        }
      ],
      "name": "createVote",
      "outputs": [],
      "stateMutability": "nonpayable",
      "type": "function"
    },
    {
      "inputs": [],
      "name": "getAllUsers",
      "outputs": [
        {
          "internalType": "address[]",
          "name": "",
          "type": "address[]"
        }
      ],
      "stateMutability": "view",
      "type": "function"
    },
    {
      "inputs": [
        {
          "internalType": "address",
          "name": "_user",
          "type": "address"
        }
      ],
      "name": "getUserRole",
      "outputs": [
        {
          "internalType": "enum VotingSystem.Role",
          "name": "",
          "type": "uint8"
        }
      ],
      "stateMutability": "view",
      "type": "function"
    },
    {
      "inputs": [
        {
          "internalType": "address",
          "name": "_user",
          "type": "address"
        }
      ],
      "name": "getUsername",
      "outputs": [
        {
          "internalType": "string",
          "name": "",
          "type": "string"
        }
      ],
      "stateMutability": "view",
      "type": "function"
    },
    {
      "inputs": [
        {
          "internalType": "uint256",
          "name": "_voteId",
          "type": "uint256"
        }
      ],
      "name": "getVoteDetails",
      "outputs": [
        {
          "internalType": "uint256",
          "name": "id",
          "type": "uint256"
        },
        {
          "internalType": "string",
          "name": "question",
          "type": "string"
        },
        {
          "internalType": "string[]",
          "name": "options",
          "type": "string[]"
        },
        {
          "internalType": "uint256[]",
          "name": "votesPerOption",
          "type": "uint256[]"
        },
        {
          "internalType": "uint256",
          "name": "closingDate",
          "type": "uint256"
        },
        {
          "internalType": "bool",
          "name": "isOpen",
          "type": "bool"
        }
      ],
      "stateMutability": "view",
      "type": "function"
    },
    {
      "inputs": [],
      "name": "getVotesCount",
      "outputs": [
        {
          "internalType": "uint256",
          "name": "",
          "type": "uint256"
        }
      ],
      "stateMutability": "view",
      "type": "function"
    },
    {
      "inputs": [
        {
          "internalType": "uint256",
          "name": "_voteId",
          "type": "uint256"
        },
        {
          "internalType": "address",
          "name": "_user",
          "type": "address"
        }
      ],
      "name": "hasUserVoted",
      "outputs": [
        {
          "internalType": "bool",
          "name": "",
          "type": "bool"
        }
      ],
      "stateMutability": "view",
      "type": "function"
    },
    {
      "inputs": [
        {
          "internalType": "uint256",
          "name": "_voteId",
          "type": "uint256"
        },
        {
          "internalType": "address",
          "name": "_user",
          "type": "address"
        }
      ],
      "name": "isUserAuthorized",
      "outputs": [
        {
          "internalType": "bool",
          "name": "",
          "type": "bool"
        }
      ],
      "stateMutability": "view",
      "type": "function"
    },
    {
      "inputs": [],
      "name": "owner",
      "outputs": [
        {
          "internalType": "address",
          "name": "",
          "type": "address"
        }
      ],
      "stateMutability": "view",
      "type": "function"
    },
    {
      "inputs": [
        {
          "internalType": "address",
          "name": "_user",
          "type": "address"
        }
      ],
      "name": "removeUser",
      "outputs": [],
      "stateMutability": "nonpayable",
      "type": "function"
    },
    {
      "inputs": [
        {
          "internalType": "uint256",
          "name": "",
          "type": "uint256"
        }
      ],
      "name": "userAddresses",
      "outputs": [
        {
          "internalType": "address",
          "name": "",
          "type": "address"
        }
      ],
      "stateMutability": "view",
      "type": "function"
    },
    {
      "inputs": [
        {
          "internalType": "uint256",
          "name": "_voteId",
          "type": "uint256"
        },
        {
          "internalType": "uint256",
          "name": "_optionIndex",
          "type": "uint256"
        }
      ],
      "name": "vote",
      "outputs": [],
      "stateMutability": "nonpayable",
      "type": "function"
    },
    {
      "inputs": [],
      "name": "voteCount",
      "outputs": [
        {
          "internalType": "uint256",
          "name": "",
          "type": "uint256"
        }
      ],
      "stateMutability": "view",
      "type": "function"
    },
    {
      "inputs": [
        {
          "internalType": "uint256",
          "name": "",
          "type": "uint256"
        }
      ],
      "name": "votes",
      "outputs": [
        {
          "internalType": "uint256",
          "name": "id",
          "type": "uint256"
        },
        {
          "internalType": "string",
          "name": "question",
          "type": "string"
        },
        {
          "internalType": "uint256",
          "name": "closingDate",
          "type": "uint256"
        },
        {
          "internalType": "bool",
          "name": "isOpen",
          "type": "bool"
        }
      ],
      "stateMutability": "view",
      "type": "function"
    }
  ],
  "bytecode": "0x608060405234801561001057600080fd5b50336000806101000a81548173ffffffffffffffffffffffffffffffffffffffff021916908373ffffffffffffffffffffffffffffffffffffffff16021790555060405180604001604052806040518060400160405280600581526020017f4f776e65720000000000000000000000000000000000000000000000000000008152508152602001600160028111156100ab576100aa6101f6565b5b815250600260003373ffffffffffffffffffffffffffffffffffffffff1673ffffffffffffffffffffffffffffffffffffffff16815260200190815260200160002060008201518160000190816101029190610475565b5060208201518160010160006101000a81548160ff0219169083600281111561012e5761012d6101f6565b5b02179055509050506001600360003373ffffffffffffffffffffffffffffffffffffffff1673ffffffffffffffffffffffffffffffffffffffff16815260200190815260200160002060006101000a81548160ff0219169083151502179055506005339080600181540180825580915050600190039060005260206000200160009091909190916101000a81548173ffffffffffffffffffffffffffffffffffffffff021916908373ffffffffffffffffffffffffffffffffffffffff160217905550610547565b7f4e487b7100000000000000000000000000000000000000000000000000000000600052602160045260246000fd5b600081519050919050565b7f4e487b7100000000000000000000000000000000000000000000000000000000600052604160045260246000fd5b7f4e487b7100000000000000000000000000000000000000000000000000000000600052602260045260246000fd5b600060028204905060018216806102a657607f821691505b6020821081036102b9576102b861025f565b5b50919050565b60008190508160005260206000209050919050565b60006020601f8301049050919050565b600082821b905092915050565b6000600883026103217fffffffffffffffffffffffffffffffffffffffffffffffffffffffffffffffff826102e4565b61032b86836102e4565b95508019841693508086168417925050509392505050565b6000819050919050565b6000819050919050565b600061037261036d61036884610343565b61034d565b610343565b9050919050565b6000819050919050565b61038c83610357565b6103a061039882610379565b8484546102f1565b825550505050565b600090565b6103b56103a8565b6103c0818484610383565b505050565b5b818110156103e4576103d96000826103ad565b6001810190506103c6565b5050565b601f821115610429576103fa816102bf565b610403846102d4565b81016020851015610412578190505b61042661041e856102d4565b8301826103c5565b50505b505050565b600082821c905092915050565b600061044c6000198460080261042e565b1980831691505092915050565b6000610465838361043b565b9150826002028217905092915050565b61047e82610225565b67ffffffffffffffff81111561049757610496610230565b5b6104a1825461028e565b6104ac8282856103e8565b600060209050601f8311600181146104df57600084156104cd578287015190505b6104d78582610459565b86555061053f565b601f1984166104ed866102bf565b60005b82811015610515578489015182556001820191506020850194506020810190506104f0565b86831015610532578489015161052e601f89168261043b565b8355505b6001600288020188555050505b505050505050565b612e20806105566000396000f3fe608060405234801561001057600080fd5b50600436106101165760003560e01c80635df81330116100a2578063b384abef11610071578063b384abef14610320578063c63840711461033c578063ce43c0321461035a578063dc296ae11461038a578063e2842d79146103ba57610116565b80635df81330146102975780636e48a035146102ca5780638da5cb5b146102e6578063985751881461030457610116565b80633c192689116100e95780633c192689146101b657806340d26854146101e6578063429b62e514610202578063502c9bd51461023257806354a1b4311461026257610116565b806315dd015e1461011b5780631828983a146101375780631b605b86146101685780632782085114610186575b600080fd5b61013560048036038101906101309190611c03565b6103d8565b005b610151600480360381019061014c9190611cec565b610647565b60405161015f929190611e0f565b60405180910390f35b610170610700565b60405161017d9190611e4e565b60405180910390f35b6101a0600480360381019061019b9190611cec565b61070a565b6040516101ad9190611e69565b60405180910390f35b6101d060048036038101906101cb9190611e84565b610818565b6040516101dd9190611edf565b60405180910390f35b61020060048036038101906101fb9190611f1f565b610903565b005b61021c60048036038101906102179190611cec565b610c1e565b6040516102299190611edf565b60405180910390f35b61024c60048036038101906102479190611f8e565b610c3e565b6040516102599190611fca565b60405180910390f35b61027c60048036038101906102779190611f8e565b610c7d565b60405161028e969594939291906121af565b60405180910390f35b6102b160048036038101906102ac9190611f8e565b610e8d565b6040516102c19493929190612225565b60405180910390f35b6102e460048036038101906102df9190611f8e565b610f52565b005b6102ee6110c8565b6040516102fb9190611fca565b60405180910390f35b61031e60048036038101906103199190611cec565b6110ec565b005b61033a60048036038101906103359190612271565b6112d0565b005b6103446115dd565b6040516103519190611e4e565b60405180910390f35b610374600480360381019061036f9190611cec565b6115e3565b60405161038191906122b1565b60405180910390f35b6103a4600480360381019061039f9190611e84565b61176d565b6040516103b19190611edf565b60405180910390f35b6103c26117d8565b6040516103cf9190612391565b60405180910390f35b600160028111156103ec576103eb611d98565b5b600260003373ffffffffffffffffffffffffffffffffffffffff1673ffffffffffffffffffffffffffffffffffffffff16815260200190815260200160002060010160009054906101000a900460ff16600281111561044e5761044d611d98565b5b1461048e576040517f08c379a0000000000000000000000000000000000000000000000000000000008152600401610485906123ff565b60405180910390fd5b6002825110156104d3576040517f08c379a00000000000000000000000000000000000000000000000000000000081526004016104ca9061246b565b60405180910390fd5b428111610515576040517f08c379a000000000000000000000000000000000000000000000000000000000815260040161050c906124fd565b60405180910390fd5b6000600460006001548152602001908152602001600020905060015481600001819055508381600101908161054a9190612729565b5082816002019080519060200190610563929190611866565b5081816004018190555060018160050160006101000a81548160ff021916908315150217905550825167ffffffffffffffff8111156105a5576105a46119bc565b5b6040519080825280602002602001820160405280156105d35781602001602082028036833780820191505090505b508160030190805190602001906105eb9291906118bf565b50600160008154809291906105ff9061282a565b91905055507f8225b3ad6e66d4c2342e977fbab464beaf3ae9d33b222938cff268dfd7b55b83816000015485604051610639929190612872565b60405180910390a150505050565b600260205280600052604060002060009150905080600001805461066a9061254c565b80601f01602080910402602001604051908101604052809291908181526020018280546106969061254c565b80156106e35780601f106106b8576101008083540402835291602001916106e3565b820191906000526020600020905b8154815290600101906020018083116106c657829003601f168201915b5050505050908060010160009054906101000a900460ff16905082565b6000600154905090565b600080600281111561071f5761071e611d98565b5b600260008473ffffffffffffffffffffffffffffffffffffffff1673ffffffffffffffffffffffffffffffffffffffff16815260200190815260200160002060010160009054906101000a900460ff16600281111561078157610780611d98565b5b036107c1576040517f08c379a00000000000000000000000000000000000000000000000000000000081526004016107b8906128ee565b60405180910390fd5b600260008373ffffffffffffffffffffffffffffffffffffffff1673ffffffffffffffffffffffffffffffffffffffff16815260200190815260200160002060010160009054906101000a900460ff169050919050565b600080600281111561082d5761082c611d98565b5b600260008473ffffffffffffffffffffffffffffffffffffffff1673ffffffffffffffffffffffffffffffffffffffff16815260200190815260200160002060010160009054906101000a900460ff16600281111561088f5761088e611d98565b5b141580156108fb57506004600084815260200190815260200160002060060160008373ffffffffffffffffffffffffffffffffffffffff1673ffffffffffffffffffffffffffffffffffffffff16815260200190815260200160002060009054906101000a900460ff16155b905092915050565b60008054906101000a900473ffffffffffffffffffffffffffffffffffffffff1673ffffffffffffffffffffffffffffffffffffffff163373ffffffffffffffffffffffffffffffffffffffff1614610991576040517f08c379a00000000000000000000000000000000000000000000000000000000081526004016109889061295a565b60405180910390fd5b600060028111156109a5576109a4611d98565b5b600260008573ffffffffffffffffffffffffffffffffffffffff1673ffffffffffffffffffffffffffffffffffffffff16815260200190815260200160002060010160009054906101000a900460ff166002811115610a0757610a06611d98565b5b14610a47576040517f08c379a0000000000000000000000000000000000000000000000000000000008152600401610a3e906129c6565b60405180910390fd5b6040518060400160405280838152602001826002811115610a6b57610a6a611d98565b5b815250600260008573ffffffffffffffffffffffffffffffffffffffff1673ffffffffffffffffffffffffffffffffffffffff1681526020019081526020016000206000820151816000019081610ac29190612729565b5060208201518160010160006101000a81548160ff02191690836002811115610aee57610aed611d98565b5b02179055509050506005839080600181540180825580915050600190039060005260206000200160009091909190916101000a81548173ffffffffffffffffffffffffffffffffffffffff021916908373ffffffffffffffffffffffffffffffffffffffff1602179055507f8897d4c16f6b907647cc92f3b2f80418ac81581b8e74f9dda595d3910b44c862838383604051610b8c939291906129e6565b60405180910390a160016002811115610ba857610ba7611d98565b5b816002811115610bbb57610bba611d98565b5b03610c19576001600360008573ffffffffffffffffffffffffffffffffffffffff1673ffffffffffffffffffffffffffffffffffffffff16815260200190815260200160002060006101000a81548160ff0219169083151502179055505b505050565b60036020528060005260406000206000915054906101000a900460ff1681565b60058181548110610c4e57600080fd5b906000526020600020016000915054906101000a900473ffffffffffffffffffffffffffffffffffffffff1681565b600060608060606000806000600460008981526020019081526020016000209050806000015481600101826002018360030184600401548560050160009054906101000a900460ff16848054610cd29061254c565b80601f0160208091040260200160405190810160405280929190818152602001828054610cfe9061254c565b8015610d4b5780601f10610d2057610100808354040283529160200191610d4b565b820191906000526020600020905b815481529060010190602001808311610d2e57829003601f168201915b5050505050945083805480602002602001604051908101604052809291908181526020016000905b82821015610e1f578382906000526020600020018054610d929061254c565b80601f0160208091040260200160405190810160405280929190818152602001828054610dbe9061254c565b8015610e0b5780601f10610de057610100808354040283529160200191610e0b565b820191906000526020600020905b815481529060010190602001808311610dee57829003601f168201915b505050505081526020019060010190610d73565b50505050935082805480602002602001604051908101604052809291908181526020018280548015610e7057602002820191906000526020600020905b815481526020019060010190808311610e5c575b505050505092509650965096509650965096505091939550919395565b6004602052806000526040600020600091509050806000015490806001018054610eb69061254c565b80601f0160208091040260200160405190810160405280929190818152602001828054610ee29061254c565b8015610f2f5780601f10610f0457610100808354040283529160200191610f2f565b820191906000526020600020905b815481529060010190602001808311610f1257829003601f168201915b5050505050908060040154908060050160009054906101000a900460ff16905084565b60016002811115610f6657610f65611d98565b5b600260003373ffffffffffffffffffffffffffffffffffffffff1673ffffffffffffffffffffffffffffffffffffffff16815260200190815260200160002060010160009054906101000a900460ff166002811115610fc857610fc7611d98565b5b14611008576040517f08c379a0000000000000000000000000000000000000000000000000000000008152600401610fff906123ff565b60405180910390fd5b60006004600083815260200190815260200160002090508060050160009054906101000a900460ff16611070576040517f08c379a000000000000000000000000000000000000000000000000000000000815260040161106790612a70565b60405180910390fd5b60008160050160006101000a81548160ff0219169083151502179055507fbc12589e76c0d59fd5a7c6f642c154830f0b46718b5ac07d1a0bdf29e124cbd8826040516110bc9190611e4e565b60405180910390a15050565b60008054906101000a900473ffffffffffffffffffffffffffffffffffffffff1681565b60008054906101000a900473ffffffffffffffffffffffffffffffffffffffff1673ffffffffffffffffffffffffffffffffffffffff163373ffffffffffffffffffffffffffffffffffffffff161461117a576040517f08c379a00000000000000000000000000000000000000000000000000000000081526004016111719061295a565b60405180910390fd5b6000600281111561118e5761118d611d98565b5b600260008373ffffffffffffffffffffffffffffffffffffffff1673ffffffffffffffffffffffffffffffffffffffff16815260200190815260200160002060010160009054906101000a900460ff1660028111156111f0576111ef611d98565b5b03611230576040517f08c379a000000000000000000000000000000000000000000000000000000000815260040161122790612adc565b60405180910390fd5b600260008273ffffffffffffffffffffffffffffffffffffffff1673ffffffffffffffffffffffffffffffffffffffff16815260200190815260200160002060008082016000611280919061190c565b6001820160006101000a81549060ff021916905550507fe9dce8c992623ce791725b21e857e33248d1f190a25b5168313420eebdaae99d816040516112c59190611fca565b60405180910390a150565b600060028111156112e4576112e3611d98565b5b600260003373ffffffffffffffffffffffffffffffffffffffff1673ffffffffffffffffffffffffffffffffffffffff16815260200190815260200160002060010160009054906101000a900460ff16600281111561134657611345611d98565b5b03611386576040517f08c379a000000000000000000000000000000000000000000000000000000000815260040161137d90612b48565b60405180910390fd5b60006004600084815260200190815260200160002090508060050160009054906101000a900460ff166113ee576040517f08c379a00000000000000000000000000000000000000000000000000000000081526004016113e590612bb4565b60405180910390fd5b8060040154421115611435576040517f08c379a000000000000000000000000000000000000000000000000000000000815260040161142c90612c20565b60405180910390fd5b8060060160003373ffffffffffffffffffffffffffffffffffffffff1673ffffffffffffffffffffffffffffffffffffffff16815260200190815260200160002060009054906101000a900460ff16156114c4576040517f08c379a00000000000000000000000000000000000000000000000000000000081526004016114bb90612c8c565b60405180910390fd5b8060020180549050821061150d576040517f08c379a000000000000000000000000000000000000000000000000000000000815260040161150490612cf8565b60405180910390fd5b80600301828154811061152357611522612d18565b5b90600052602060002001600081548092919061153e9061282a565b919050555060018160060160003373ffffffffffffffffffffffffffffffffffffffff1673ffffffffffffffffffffffffffffffffffffffff16815260200190815260200160002060006101000a81548160ff0219169083151502179055507f1abe610cf2bf87e57dcc1181fcf5ac0934e843d8344ab9eed6e86c799f62585e8333846040516115d093929190612d47565b60405180910390a1505050565b60015481565b6060600060028111156115f9576115f8611d98565b5b600260008473ffffffffffffffffffffffffffffffffffffffff1673ffffffffffffffffffffffffffffffffffffffff16815260200190815260200160002060010160009054906101000a900460ff16600281111561165b5761165a611d98565b5b0361169b576040517f08c379a000000000000000000000000000000000000000000000000000000000815260040161169290612dca565b60405180910390fd5b600260008373ffffffffffffffffffffffffffffffffffffffff1673ffffffffffffffffffffffffffffffffffffffff16815260200190815260200160002060000180546116e89061254c565b80601f01602080910402602001604051908101604052809291908181526020018280546117149061254c565b80156117615780601f1061173657610100808354040283529160200191611761565b820191906000526020600020905b81548152906001019060200180831161174457829003601f168201915b50505050509050919050565b60006004600084815260200190815260200160002060060160008373ffffffffffffffffffffffffffffffffffffffff1673ffffffffffffffffffffffffffffffffffffffff16815260200190815260200160002060009054906101000a900460ff16905092915050565b6060600580548060200260200160405190810160405280929190818152602001828054801561185c57602002820191906000526020600020905b8160009054906101000a900473ffffffffffffffffffffffffffffffffffffffff1673ffffffffffffffffffffffffffffffffffffffff1681526020019060010190808311611812575b5050505050905090565b8280548282559060005260206000209081019282156118ae579160200282015b828111156118ad57825182908161189d9190612729565b5091602001919060010190611886565b5b5090506118bb919061194c565b5090565b8280548282559060005260206000209081019282156118fb579160200282015b828111156118fa5782518255916020019190600101906118df565b5b5090506119089190611970565b5090565b5080546119189061254c565b6000825580601f1061192a5750611949565b601f0160209004906000526020600020908101906119489190611970565b5b50565b5b8082111561196c5760008181611963919061190c565b5060010161194d565b5090565b5b80821115611989576000816000905550600101611971565b5090565b6000604051905090565b600080fd5b600080fd5b600080fd5b600080fd5b6000601f19601f8301169050919050565b7f4e487b7100000000000000000000000000000000000000000000000000000000600052604160045260246000fd5b6119f4826119ab565b810181811067ffffffffffffffff82111715611a1357611a126119bc565b5b80604052505050565b6000611a2661198d565b9050611a3282826119eb565b919050565b600067ffffffffffffffff821115611a5257611a516119bc565b5b611a5b826119ab565b9050602081019050919050565b82818337600083830152505050565b6000611a8a611a8584611a37565b611a1c565b905082815260208101848484011115611aa657611aa56119a6565b5b611ab1848285611a68565b509392505050565b600082601f830112611ace57611acd6119a1565b5b8135611ade848260208601611a77565b91505092915050565b600067ffffffffffffffff821115611b0257611b016119bc565b5b602082029050602081019050919050565b600080fd5b6000611b2b611b2684611ae7565b611a1c565b90508083825260208201905060208402830185811115611b4e57611b4d611b13565b5b835b81811015611b9557803567ffffffffffffffff811115611b7357611b726119a1565b5b808601611b808982611ab9565b85526020850194505050602081019050611b50565b5050509392505050565b600082601f830112611bb457611bb36119a1565b5b8135611bc4848260208601611b18565b91505092915050565b6000819050919050565b611be081611bcd565b8114611beb57600080fd5b50565b600081359050611bfd81611bd7565b92915050565b600080600060608486031215611c1c57611c1b611997565b5b600084013567ffffffffffffffff811115611c3a57611c3961199c565b5b611c4686828701611ab9565b935050602084013567ffffffffffffffff811115611c6757611c6661199c565b5b611c7386828701611b9f565b9250506040611c8486828701611bee565b9150509250925092565b600073ffffffffffffffffffffffffffffffffffffffff82169050919050565b6000611cb982611c8e565b9050919050565b611cc981611cae565b8114611cd457600080fd5b50565b600081359050611ce681611cc0565b92915050565b600060208284031215611d0257611d01611997565b5b6000611d1084828501611cd7565b91505092915050565b600081519050919050565b600082825260208201905092915050565b60005b83811015611d53578082015181840152602081019050611d38565b60008484015250505050565b6000611d6a82611d19565b611d748185611d24565b9350611d84818560208601611d35565b611d8d816119ab565b840191505092915050565b7f4e487b7100000000000000000000000000000000000000000000000000000000600052602160045260246000fd5b60038110611dd857611dd7611d98565b5b50565b6000819050611de982611dc7565b919050565b6000611df982611ddb565b9050919050565b611e0981611dee565b82525050565b60006040820190508181036000830152611e298185611d5f565b9050611e386020830184611e00565b9392505050565b611e4881611bcd565b82525050565b6000602082019050611e636000830184611e3f565b92915050565b6000602082019050611e7e6000830184611e00565b92915050565b60008060408385031215611e9b57611e9a611997565b5b6000611ea985828601611bee565b9250506020611eba85828601611cd7565b9150509250929050565b60008115159050919050565b611ed981611ec4565b82525050565b6000602082019050611ef46000830184611ed0565b92915050565b60038110611f0757600080fd5b50565b600081359050611f1981611efa565b92915050565b600080600060608486031215611f3857611f37611997565b5b6000611f4686828701611cd7565b935050602084013567ffffffffffffffff811115611f6757611f6661199c565b5b611f7386828701611ab9565b9250506040611f8486828701611f0a565b9150509250925092565b600060208284031215611fa457611fa3611997565b5b6000611fb284828501611bee565b91505092915050565b611fc481611cae565b82525050565b6000602082019050611fdf6000830184611fbb565b92915050565b600081519050919050565b600082825260208201905092915050565b6000819050602082019050919050565b600082825260208201905092915050565b600061202d82611d19565b6120378185612011565b9350612047818560208601611d35565b612050816119ab565b840191505092915050565b60006120678383612022565b905092915050565b6000602082019050919050565b600061208782611fe5565b6120918185611ff0565b9350836020820285016120a385612001565b8060005b858110156120df57848403895281516120c0858261205b565b94506120cb8361206f565b925060208a019950506001810190506120a7565b50829750879550505050505092915050565b600081519050919050565b600082825260208201905092915050565b6000819050602082019050919050565b61212681611bcd565b82525050565b6000612138838361211d565b60208301905092915050565b6000602082019050919050565b600061215c826120f1565b61216681856120fc565b93506121718361210d565b8060005b838110156121a2578151612189888261212c565b975061219483612144565b925050600181019050612175565b5085935050505092915050565b600060c0820190506121c46000830189611e3f565b81810360208301526121d68188611d5f565b905081810360408301526121ea818761207c565b905081810360608301526121fe8186612151565b905061220d6080830185611e3f565b61221a60a0830184611ed0565b979650505050505050565b600060808201905061223a6000830187611e3f565b818103602083015261224c8186611d5f565b905061225b6040830185611e3f565b6122686060830184611ed0565b95945050505050565b6000806040838503121561228857612287611997565b5b600061229685828601611bee565b92505060206122a785828601611bee565b9150509250929050565b600060208201905081810360008301526122cb8184611d5f565b905092915050565b600081519050919050565b600082825260208201905092915050565b6000819050602082019050919050565b61230881611cae565b82525050565b600061231a83836122ff565b60208301905092915050565b6000602082019050919050565b600061233e826122d3565b61234881856122de565b9350612353836122ef565b8060005b8381101561238457815161236b888261230e565b975061237683612326565b925050600181019050612357565b5085935050505092915050565b600060208201905081810360008301526123ab8184612333565b905092915050565b7f4e6f742061206d616e6167657200000000000000000000000000000000000000600082015250565b60006123e9600d83611d24565b91506123f4826123b3565b602082019050919050565b60006020820190508181036000830152612418816123dc565b9050919050565b7f4174206c656173742074776f206f7074696f6e73207265717569726564000000600082015250565b6000612455601d83611d24565b91506124608261241f565b602082019050919050565b6000602082019050818103600083015261248481612448565b9050919050565b7f436c6f73696e672064617465206d75737420626520696e20746865206675747560008201527f7265000000000000000000000000000000000000000000000000000000000000602082015250565b60006124e7602283611d24565b91506124f28261248b565b604082019050919050565b60006020820190508181036000830152612516816124da565b9050919050565b7f4e487b7100000000000000000000000000000000000000000000000000000000600052602260045260246000fd5b6000600282049050600182168061256457607f821691505b6020821081036125775761257661251d565b5b50919050565b60008190508160005260206000209050919050565b60006020601f8301049050919050565b600082821b905092915050565b6000600883026125df7fffffffffffffffffffffffffffffffffffffffffffffffffffffffffffffffff826125a2565b6125e986836125a2565b95508019841693508086168417925050509392505050565b6000819050919050565b600061262661262161261c84611bcd565b612601565b611bcd565b9050919050565b6000819050919050565b6126408361260b565b61265461264c8261262d565b8484546125af565b825550505050565b600090565b61266961265c565b612674818484612637565b505050565b5b818110156126985761268d600082612661565b60018101905061267a565b5050565b601f8211156126dd576126ae8161257d565b6126b784612592565b810160208510156126c6578190505b6126da6126d285612592565b830182612679565b50505b505050565b600082821c905092915050565b6000612700600019846008026126e2565b1980831691505092915050565b600061271983836126ef565b9150826002028217905092915050565b61273282611d19565b67ffffffffffffffff81111561274b5761274a6119bc565b5b612755825461254c565b61276082828561269c565b600060209050601f8311600181146127935760008415612781578287015190505b61278b858261270d565b8655506127f3565b601f1984166127a18661257d565b60005b828110156127c9578489015182556001820191506020850194506020810190506127a4565b868310156127e657848901516127e2601f8916826126ef565b8355505b6001600288020188555050505b505050505050565b7f4e487b7100000000000000000000000000000000000000000000000000000000600052601160045260246000fd5b600061283582611bcd565b91507fffffffffffffffffffffffffffffffffffffffffffffffffffffffffffffffff8203612867576128666127fb565b5b600182019050919050565b60006040820190506128876000830185611e3f565b81810360208301526128998184611d5f565b90509392505050565b7f55736572206973206e6f7420617574686f72697a656400000000000000000000600082015250565b60006128d8601683611d24565b91506128e3826128a2565b602082019050919050565b60006020820190508181036000830152612907816128cb565b9050919050565b7f4e6f7420636f6e7472616374206f776e65720000000000000000000000000000600082015250565b6000612944601283611d24565b915061294f8261290e565b602082019050919050565b6000602082019050818103600083015261297381612937565b9050919050565b7f5573657220616c72656164792065786973747300000000000000000000000000600082015250565b60006129b0601383611d24565b91506129bb8261297a565b602082019050919050565b600060208201905081810360008301526129df816129a3565b9050919050565b60006060820190506129fb6000830186611fbb565b8181036020830152612a0d8185611d5f565b9050612a1c6040830184611e00565b949350505050565b7f566f746520616c726561647920636c6f73656400000000000000000000000000600082015250565b6000612a5a601383611d24565b9150612a6582612a24565b602082019050919050565b60006020820190508181036000830152612a8981612a4d565b9050919050565b7f5573657220646f6573206e6f7420657869737400000000000000000000000000600082015250565b6000612ac6601383611d24565b9150612ad182612a90565b602082019050919050565b60006020820190508181036000830152612af581612ab9565b9050919050565b7f4e6f7420617574686f72697a6564000000000000000000000000000000000000600082015250565b6000612b32600e83611d24565b9150612b3d82612afc565b602082019050919050565b60006020820190508181036000830152612b6181612b25565b9050919050565b7f566f746520697320636c6f736564000000000000000000000000000000000000600082015250565b6000612b9e600e83611d24565b9150612ba982612b68565b602082019050919050565b60006020820190508181036000830152612bcd81612b91565b9050919050565b7f566f74696e6720706572696f642068617320656e646564000000000000000000600082015250565b6000612c0a601783611d24565b9150612c1582612bd4565b602082019050919050565b60006020820190508181036000830152612c3981612bfd565b9050919050565b7f416c726561647920766f74656420696e207468697320766f7465000000000000600082015250565b6000612c76601a83611d24565b9150612c8182612c40565b602082019050919050565b60006020820190508181036000830152612ca581612c69565b9050919050565b7f496e76616c6964206f7074696f6e000000000000000000000000000000000000600082015250565b6000612ce2600e83611d24565b9150612ced82612cac565b602082019050919050565b60006020820190508181036000830152612d1181612cd5565b9050919050565b7f4e487b7100000000000000000000000000000000000000000000000000000000600052603260045260246000fd5b6000606082019050612d5c6000830186611e3f565b612d696020830185611fbb565b612d766040830184611e3f565b949350505050565b7f55736572206e6f7420666f756e64000000000000000000000000000000000000600082015250565b6000612db4600e83611d24565b9150612dbf82612d7e565b602082019050919050565b60006020820190508181036000830152612de381612da7565b905091905056fea26469706673582212204aa60f9f9719645f9b4586bab80d443ec84ac4110bc3555af0a1a9d8e927331e64736f6c634300081b0033",
  "linkReferences": {},
  "deployedLinkReferences": {}
}